:020000040000FA
:06000000D4EF00F0120035
:020006000000F8
:0800080094809482939093927E
:10001000956A8250010B0FE18250020B0CE1818046
:1000200081828250010BF5E18250020BF2E183687C
:1000300055D8836AF6D78250010B12E18250020B29
:100040000FE081908192800E836E8250010BE1E17E
:100050008250020BDEE083407F0B836E3FD8F5D7E2
:100060008250010B12E08250020B0FE181808182ED
:10007000010E836E8250010BCCE08250020BC9E16D
:100080008350E824836E2AD8F5D781808182836AE1
:10009000C0D7D9CFE6FFE1CFD9FF00018A6B8B6BC8
:1000A000FD0EDBCF02F0FE0EDBCF03F002508A5DC7
:1000B00003508B590FE28C6B8D6BA50E8C5D000E7F
:1000C0008D5904E28C2B000E8D23F7D78A2B000E5E
:1000D0008B23E6D7E552E7CFD9FF1200640EE66E18
:0A00E000E66AD7DFE552E552120090
:0600EA00060EF66E000E8A
:1000F000F76E000EF86E00010900F550856F0900DB
:10010000F550866F03E1856701D03DD00900F550B9
:10011000806F0900F550816F0900F550826F09006A
:100120000900F550E96E0900F550EA6E0900090072
:100130000900F550836F0900F550846F090009002C
:10014000F6CF87F0F7CF88F0F8CF89F080C0F6FFC0
:1001500081C0F7FF82C0F8FF0001835302E184539E
:1001600007E00900F550EE6E8307F8E28407F9D73F
:1001700087C0F6FF88C0F7FF89C0F8FF0001850738
:08018000000E865BBFD71200E0
:08018800000EF36E00EE00F022
:10019000060E01D81200EA6002D0EE6AFCD7F350D6
:0801A000E9601200EE6AFCD7D1
:0801A80015EE00F025EE00F059
:1001B000F86A019C75EC00F0E2EC00F004EC00F051
:0401C000FBD7120057
:0201C400120027
:020000040030CA
:0100010022DC
:010002000FEE
:010003000EEE
:010006008178
:00000001FF
