:1000000074381152740E1152740111527406115247
:10001000748011527457116174451161744C1161EF
:1000200074431161744F1161744D11617445116114
:1000300074C0115274541161744F116174201161B4
:1000400074561161744911617449116174541161DC
:1000500080FE1170F580C2A0C2A2D2A11170C2A10F
:10006000221170F580D2A0C2A2D2A11170C2A12229
:10007000758901758CF8758ACCD28C308DFDC28C57
:03008000C28D220C
:00000001FF
