:020000040000FA
:0600000013EF01F01200F5
:020006000000F8
:08000800A6D8040EE126DE6A11
:10001000DD6ADECF00F0DDCF01F0FD0EDBCF02F0B8
:10002000FE0EDBCF03F00250005C0350015805E2E6
:10003000DF2A010EEEE3DB2AECD7020EDB6A030EA9
:10004000DB6A020EDBCF00F0030EDBCF01F0D890AD
:10005000015004E6A50E005C000E015806E2020EF7
:10006000DB2A030EEEE3DB2AECD7040EE15C02E2AE
:10007000E16AE552E16E74D057D882904CD054D8E2
:10008000828049D068D8FE0EDB0402E1800E01D0E8
:10009000C00EF36EFE0EF3CFDBFFFD0EDBCFE6FFEF
:1000A000FE0EDB50E552E71043D846D80AE044D8AC
:1000B000E66EE5DFE552FB0EDB2AFC0EF6E3DB2AFB
:1000C000F4D74ED0956A949094929494380E30D888
:1000D0000E0E2ED8010E2CD8060E98EF00F0200E32
:1000E000AC6E900EAB6E0C0EAF6E949C948E01D8DD
:1000F000FED79EAAFED7AE50E66EE66A010EE66E09
:10010000E66EC0DFE552E552E552E552AE50AD6E07
:100110009EA8FED712008292FE0EDB50836E828470
:10012000050E13D882941CD016D8030EA5EF00F04C
:10013000E66EA2DFE5521200FB0EDBCFF6FFFC0EEF
:10014000DBCFF7FF0800F5501200E66EE66A5CDFD1
:10015000E552E5521200D9CFE6FFE1CFD9FF1200F8
:08016000E552E7CFD9FF1200C0
:08016800060EF66E000EF76EA4
:10017000000EF86E00010900F550856F0900F5507A
:10018000866F03E1856701D03DD00900F550806F8F
:100190000900F550816F0900F550826F09000900D0
:1001A000F550E96E0900F550EA6E090009000900F2
:1001B000F550836F0900F550846F09000900F6CFF0
:1001C00087F0F7CF88F0F8CF89F080C0F6FF81C0C4
:1001D000F7FF82C0F8FF0001835302E1845307E078
:1001E0000900F550EE6E8307F8E28407F9D787C05F
:1001F000F6FF88C0F7FF89C0F8FF00018507000EF1
:06020000865BBFD712006F
:0A020600000EF36E00EE00F0060E8D
:1002100001D81200EA6002D0EE6AFCD7F350E96020
:060220001200EE6AFCD79B
:0A02260015EE00F025EE00F0F86A76
:10023000059CB4EC00F021EC01F06FEC00F0FBD772
:020240001200AA
:020242001200A8
:020000040030CA
:0100010022DC
:010002000FEE
:010003000EEE
:010006008178
:00000001FF
