:020000040000FA
:0600000081EF00F0120088
:020006000000F8
:0600080056EF00F01200AB
:02000E00060EDC
:10001000F66E000EF76E000EF86E00010900F55046
:10002000856F0900F550866F03E1856701D03DD0EB
:100030000900F550806F0900F550816F0900F550F7
:10004000826F09000900F550E96E0900F550EA6E6B
:10005000090009000900F550836F0900F550846F0D
:1000600009000900F6CF87F0F7CF88F0F8CF89F0C4
:1000700080C0F6FF81C0F7FF82C0F8FF0001835304
:1000800002E1845307E00900F550EE6E8307F8E2C1
:100090008407F9D787C0F6FF88C0F7FF89C0F8FF4B
:0C00A00000018507000E865BBFD7120030
:0400AC00DACFE4FFC4
:1000B000E652F2A406D08278060ED76E1B0ED66EDC
:1000C000F294E552E5CFDAFF11009498080ED56E50
:1000D000060ED76E1B0ED66EF294F28AD58EF28E75
:0200E000FFD748
:0E00E200000EF36E00EE00F0060E01D81200C4
:1000F000EA6002D0EE6AFCD7F350E9601200EE6AC3
:02010000FCD72A
:0E01020015EE00F025EE00F0F86A019C07EC07
:0E01100000F08FEC00F065EC00F0FBD7120061
:02011E001200CD
:020000040030CA
:0100010022DC
:010002000FEE
:010003000EEE
:010006008178
:00000001FF
