:020000040000FA
:060000007DEF01F012008B
:0A000600010032030000800000003A
:0400100010000000DC
:0C001400F6D8040EE126DE6ADD6ADECFBD
:1000200000F0DDCF01F0FD0EDBCF02F0FE0EDBCFE6
:1000300003F00250005C0350015805E2DF2A010E74
:10004000EEE3DB2AECD7020EDB6A030EDB6A020E5C
:10005000DBCF00F0030EDBCF01F0D890015004E6B7
:10006000A50E005C000E015806E2020EDB2A030E0C
:10007000EEE3DB2AECD7040EE15C02E2E16AE55232
:10008000E16EC4D0BED8030E96D88290CAD0B9D83B
:10009000030E91D88280C5D0B4D8FE0EDB0402E1F5
:1000A000800E01D0C00EF36EFE0EF3CFDBFFFD0E0F
:1000B000DBCFE6FFFE0EDB50E552E71095D898D86F
:1000C00008E096D8B7D8FB0EDB2AFC0EF8E3DB2A53
:1000D000F6D79CD0956A949094929494380E84D8D4
:1000E0000E0E82D8010E80D8060EF4EF00F0936A4F
:1000F000F1DF200EE66E030EE66EE66A010E8AD888
:10010000160EE66E030EE66EE66A020E83D8F00E59
:10011000816EF00E816E81CF9AF000019A179A5D80
:10012000F8E1140E48D859D8FCE0140E44D855D83C
:10013000F8E0FE0E816E51D802E09B6BEAD7FD0E0F
:1001400046D89A5D02E0010E0BD0FB0E40D89A5DB6
:1001500002E0020E05D0F70E3AD89A5D03E0030ED6
:100160009B6FD7D7F70E33D8E00E9A5D03E118D80E
:10017000EF5060D8D00E00019A5D03E111D8010E56
:1001800020D8B00E00019A5D03E10AD8020E19D8FA
:10019000700E00019A5DCDE103D8030E12D8C9D7C5
:1001A0009B51040DF3CFE9FFF4CFEAFF800EE9265F
:1001B000000EEA221200E66EE66A2CDFE552E552F6
:1001C0001200E926000EEA22EF501AEF01F0816ECC
:1001D00081CF9AF0F00E9A17120081CF9AF0F00EAC
:1001E00000019A179A5D1200E66E4CDFE55212008C
:1001F000FB0EDBCFF6FFFC0EDBCFF7FF0800F55060
:100200001200D9CFE6FFE1CFD9FF1200E552E7CFC8
:10021000D9FF1200E66E40DFE552E552E552E552A5
:1002200012008292FE0EDB50836E8284050EC3DFC5
:0C0230008294ECD7E66E2BDFE552120042
:04023C00060EF66E46
:10024000000EF76E000EF86E00010900F550956F74
:100250000900F550966F03E1956701D03DD0090084
:10026000F550906F0900F550916F0900F550926FAD
:1002700009000900F550E96E0900F550EA6E090021
:1002800009000900F550936F0900F550946F0900BB
:100290000900F6CF97F0F7CF98F0F8CF99F090C01B
:1002A000F6FF91C0F7FF92C0F8FF0001935302E1FF
:1002B000945307E00900F550EE6E9307F8E29407B7
:1002C000F9D797C0F6FF98C0F7FF99C0F8FF000173
:0A02D0009507000E965BBFD71200E1
:0602DA00000EF36E00EEC1
:1002E00000F0060E01D81200EA6002D0EE6AFCD7D8
:0A02F000F350E9601200EE6AFCD73B
:0602FA0015EE00F025EEF8
:1003000000F0F86A059C1EEC01F098EC01F077EC27
:0603100000F0FBD7120013
:0A031600526F6C6C204E6F2E3A00FF
:10032000416E696C2052616A7075726F6869740001
:020330001200B9
:0E0332003031323334353637383941424344A6
:02034000454630
:020000040030CA
:0100010022DC
:010002000FEE
:010003000EEE
:010006008178
:00000001FF
